--- TATUM DEBUG FOR ltc1q7jmp7a3mzv54kg8tceaj3ys80tjhzhr828t4nu ---
Status: 200
[
  {
    "blockNumber": 3073826,
    "fee": "0.00000705",
    "hash": "20d8465249f2889a2644ab300166b8edb346425c421b57e67937b8dda50a1cff",
    "hex": "01000000000101a9a90b538e94dd36918723296730d1798ce0fe91307189b489e49813bdaadeb50000000000ffffffff02e0cdfa0600000000160014f4b61f763b13295b20ebc67b2892077ae5715c6741f3480000000000160014c995481030755d3d5ba91363365736108315add80247304402200ad7252a66b2c2306a901f821550422a5159c09bac6d41e2cb739c09d6e79eb702205da25848aaca9d099a7a3e39954e9c20aceabc496ecbbe39b306dc7e8305094b0121035b1d7785546aaad031e502ca31675bee285926e51bd94fabe456b5b3e44e741000000000",
    "index": 351,
    "inputs": [
      {
        "prevout": {
          "hash": "b5deaabd1398e489b489713091fee08c79d130672923879136dd948e530ba9a9",
          "index": 0
        },
        "sequence": 4294967295,
        "script": "",
        "coin": {
          "version": 1,
          "height": 3073820,
          "value": "1.2188157",
          "script": "0014c995481030755d3d5ba91363365736108315add8",
          "address": "ltc1qex25sypsw4wn6kafzd3nv4ekzzp3ttwcur3ugv",
          "type": "witness_v0_keyhash",
          "reqSigs": 1,
          "coinbase": false
        }
      }
    ],
    "locktime": 0,
    "outputs": [
      {
        "value": "1.171",
        "script": "0014f4b61f763b13295b20ebc67b2892077ae5715c67",
        "address": "ltc1q7jmp7a3mzv54kg8tceaj3ys80tjhzhr828t4nu",
        "scriptPubKey": {
          "type": "witness_v0_keyhash",
          "reqSigs": 1
        }
      },
      {
        "value": "0.04780865",
        "script": "0014c995481030755d3d5ba91363365736108315add8",
        "address": "ltc1qex25sypsw4wn6kafzd3nv4ekzzp3ttwcur3ugv",
        "scriptPubKey": {
          "type": "witness_v0_keyhash",
          "reqSigs": 1
        }
      }
    ],
    "size": 222,
    "time": 1773764915,
    "version": 1,
    "vsize": 141,
    "weight": 561,
    "witnessHash": "51fd4c727174b5b8a545b364d6f612e06a63914aae32f460f90b52ea05ecffda",
    "block": "d0fbee15bf27ff9a9bc084bf764e1e8448c70e1f61ec37572db5dea50915c219"
  },
  {
    "blockNumber": 3073656,
    "fee": "0.0000113",
    "hash": "5b485841335160d1135251aed1325bf2b0d29c13ec2b4f7c745b1770aa9ceb89",
    "hex": "010000000102058a50b07e75e00a24b04df4afc618aebbdaa4d0a67ca3369682dc5ade98b9010000006b483045022100a2d46ad7f26571422ba65ffa15891e46fcbb07f96b43fe7e1d0dbc2f3dbd6d4b02201054b1c45883bd1c39c8db4f34124babaf62c05f122c03538f21e4a64e1efc2501210297495bfcaca20c05e749522990aaa5b6729433243639c1c5d5570b4e5dee91bdffffffff026024f70600000000160014f4b61f763b13295b20ebc67b2892077ae5715c670b58e101000000001976a9149232fc1c2628ecb9de4fc9db952290b855b87a5288ac00000000",
    "index": 46,
    "inputs": [
      {
        "prevout": {
          "hash": "b998de5adc829636a37ca6d0a4dabbae18c6aff44db0240ae0757eb0508a0502",
          "index": 1
        },
        "sequence": 4294967295,
        "script": "483045022100a2d46ad7f26571422ba65ffa15891e46fcbb07f96b43fe7e1d0dbc2f3dbd6d4b02201054b1c45883bd1c39c8db4f34124babaf62c05f122c03538f21e4a64e1efc2501210297495bfcaca20c05e749522990aaa5b6729433243639c1c5d5570b4e5dee91bd",
        "coin": {
          "version": 1,
          "height": 3073655,
          "value": "1.48406485",
          "script": "76a9149232fc1c2628ecb9de4fc9db952290b855b87a5288ac",
          "address": "LYYyzhwBCwUzeqKxSsTG3YxDJo7FfrzLVN",
          "type": "pubkeyhash",
          "reqSigs": 1,
          "coinbase": false
        }
      }
    ],
    "locktime": 0,
    "outputs": [
      {
        "value": "1.1686",
        "script": "0014f4b61f763b13295b20ebc67b2892077ae5715c67",
        "address": "ltc1q7jmp7a3mzv54kg8tceaj3ys80tjhzhr828t4nu",
        "scriptPubKey": {
          "type": "witness_v0_keyhash",
          "reqSigs": 1
        }
      },
      {
        "value": "0.31545355",
        "script": "76a9149232fc1c2628ecb9de4fc9db952290b855b87a5288ac",
        "address": "LYYyzhwBCwUzeqKxSsTG3YxDJo7FfrzLVN",
        "scriptPubKey": {
          "type": "pubkeyhash",
          "reqSigs": 1
        }
      }
    ],
    "size": 223,
    "time": 1773735553,
    "version": 1,
    "vsize": 223,
    "weight": 892,
    "witnessHash": "5b485841335160d1135251aed1325bf2b0d29c13ec2b4f7c745b1770aa9ceb89",
    "block": "dcdbedd6b671667fa25d4d616e4e4a919db327ffb76c78311b34c4200c414227"
  },
  {
    "blockNumber": 3073404,
    "fee": "0.00000282",
    "hash": "2d4c29c2c011204748557e99305db5c0e07677e71aa0bc9811303760ce392a14",
    "hex": "020000000001017328362fb98dd4dfbebcb3872a6b7994f695eb9cded63ad14c29881668eece220000000000ffffffff02d05c4e0200000000160014f4b61f763b13295b20ebc67b2892077ae5715c67b64d090000000000160014576e86196fcf708ce1064b1daa829cb19bbc615f0247304402203359cb17d833099c32c185038fb7dacc0ed06776f3f28ff1390623e4bc46a2980220012631c556733a689fcb2eacc7593fdbe0e097b0be12e6ce3fedb7fd0aecf7b3012103f8afd25c8fbc155b1b207d6adb0031c5854ab2f4a1cfeb34d3648285a11afeac00000000",
    "index": 685,
    "inputs": [
      {
        "prevout": {
          "hash": "22ceee681688294cd13ad6de9ceb95f694796b2a87b3bcbedfd48db92f362873",
          "index": 0
        },
        "sequence": 4294967295,
        "script": "",
        "coin": {
          "version": 1,
          "height": 3073404,
          "value": "0.393",
          "script": "00140da0fc13764bc39f5d3131170b072b06f14fc818",
          "address": "ltc1qpks0cymkf0pe7hf3xytskpetqmc5ljqcpd0sjh",
          "type": "witness_v0_keyhash",
          "reqSigs": 1,
          "coinbase": false
        }
      }
    ],
    "locktime": 0,
    "outputs": [
      {
        "value": "0.3869",
        "script": "0014f4b61f763b13295b20ebc67b2892077ae5715c67",
        "address": "ltc1q7jmp7a3mzv54kg8tceaj3ys80tjhzhr828t4nu",
        "scriptPubKey": {
          "type": "witness_v0_keyhash",
          "reqSigs": 1
        }
      },
      {
        "value": "0.00609718",
        "script": "0014576e86196fcf708ce1064b1daa829cb19bbc615f",
        "address": "ltc1q2ahgvxt0eacgecgxfvw64q5ukxdmcc2l5g33zg",
        "scriptPubKey": {
          "type": "witness_v0_keyhash",
          "reqSigs": 1
        }
      }
    ],
    "size": 222,
    "time": 1773696065,
    "version": 2,
    "vsize": 141,
    "weight": 561,
    "witnessHash": "ac4c9111a858df3fecd22d45bbaea54f0d71b9d1da388e85a195bb7dbea60eab",
    "block": "e8f250646fefa6c302c112dee5b20d455c47068a4bdf2c52298228ca904a1d18"
  },
  {
    "blockNumber": 3073396,
    "fee": "0.00001048",
    "hash": "48515b90702f2ef60961e6a7787ff6a8ccebb5f86a59f48ce185bd47c42f5491",
    "hex": "0100000001a7c959d864f0f5effd53101103e7ed4696a3af5082c5d557d792d160a20e4f52100000006b483045022100ac2ebe090fb0f13c6f50614dfc992dac5fa5ddaf31e693242910ba66873ee8d1022045fb2417233a8badb805c0a1cd9183ff488280c3ccf63285a010cd9bb1bec33f01210374cfa7fbe55217f1e7db36edfd8c4169c6533a0c803a78b01226bc257a80cd39ffffffff1c983cb80e00000000160014e59568ee8e0c32b58d93a9cf3ebb669f4922efac281773020000000017a91466df3f27b6428216092666b4629c81d1ea1947308794283400000000001976a914bdc99f281c80c2e4b6a2b78401737a57abf1923488ace599671e000000001600140ffba4e74f0adec5337a409ab49091b7a5098d327034e60600000000160014f4b61f763b13295b20ebc67b2892077ae5715c674aa2bd0000000000160014a2f72a0571486f6a4250b0bb0f454045b5ed567f0c658200000000001600146abe75e8bd4876352afb13078b9b237aa25a7494c49d35770000000017a914e7206566a195d0e7fa005312c13ff27ecf21508d872682160000000000160014921f310379ea90c9dc5d593cb42554fec2faf824a3d88f00000000001600149ec2e3462ef724fe02e224affc2b810b79372fa189ea13010000000016001457b7a6ed726dc9c8940d9d2b7e68955fd9aee7473259ba05000000001976a914557cdf3f7761a5af4d4e38166523f622ab4625b488ac085a860200000000160014516485ce365d8552c939353d8c3364191cf5ccd0aea4f500000000001600141833cf8c643e458e410c9ee1af58719f5b15689e110dbf02000000001600146f8f33db59141469ce2d4d4f0132ad1ca94b1e85f03a3d0100000000160014fc94515f5da80c36174a3ef9347fbae3551e595221a39a00000000001976a9148449a82f9e9550aa3fd3156a5abc9bfc3760f1fb88ac64d6c689010000001976a914a58044c2674943d807ff1d79d69c5a24ad81d2c488ace8398a0d0000000016001416754fe1d3445a935688be45db94da0df0324848003b05010000000017a9145203af6a6a1ed9d4d95c6a8d9c6c28d1fb6b21828730595800000000001600147539342e838971a4bcdbb8d9e60b08225a0c5a375890d00b0000000016001446fa97f33439915553beb7414e040a5994f8938a308fc60100000000160014ae3eb68c2629c2305e32ccc066e73195ad8c04eb6a98a22f000000001600145364230a645170cd11d942b07e2c7edf2541e1f227a0e11000000000160014da35f3198c39ec3938dbd3b9625a07f71e55aa351b13ec04000000001976a9142811a69bbea3f1a6ad39e4fc9cb7fdd8bd47c4fa88acf466f20200000000160014b8ffc462a3b02728543db62545cb695abfeb78645291f18c090000001976a91499b79eea83499802d0b60c4e9b7b6df9903e4ece88ac00000000",
    "index": 739,
    "inputs": [
      {
        "prevout": {
          "hash": "524f0ea260d192d757d5c58250afa39646ede703111053fdeff5f064d859c9a7",
          "index": 16
        },
        "sequence": 4294967295,
        "script": "483045022100ac2ebe090fb0f13c6f50614dfc992dac5fa5ddaf31e693242910ba66873ee8d1022045fb2417233a8badb805c0a1cd9183ff488280c3ccf63285a010cd9bb1bec33f01210374cfa7fbe55217f1e7db36edfd8c4169c6533a0c803a78b01226bc257a80cd39",
        "coin": {
          "version": 1,
          "height": 3072420,
          "value": "525.17176365",
          "script": "76a91499b79eea83499802d0b60c4e9b7b6df9903e4ece88ac",
          "address": "LZEjckteAtWrugbsy9zU8VHEZ4iUiXo9Nm",
          "type": "pubkeyhash",
          "reqSigs": 1,
          "coinbase": false
        }
      }
    ],
    "locktime": 0,
    "outputs": [
      {
        "value": "2.4695516",
        "script": "0014e59568ee8e0c32b58d93a9cf3ebb669f4922efac",
        "address": "ltc1quk2k3m5wpsettrvn488nawmxnayj9mavwpxnyk",
        "scriptPubKey": {
          "type": "witness_v0_keyhash",
          "reqSigs": 1
        }
      },
      {
        "value": "0.41097",
        "script": "a91466df3f27b6428216092666b4629c81d1ea19473087",
        "address": "MHH6bT2SVNKao3rSk2H6ne8Qy8tToc6Lh8",
        "scriptPubKey": {
          "type": "scripthash",
          "reqSigs": null
        }
      },
      {
        "value": "0.0341826",
        "script": "76a914bdc99f281c80c2e4b6a2b78401737a57abf1923488ac",
        "address": "LcXTWPcUvBMpPpVSUcvttMDi8nkviLcQV2",
        "scriptPubKey": {
          "type": "pubkeyhash",
          "reqSigs": 1
        }
      },
      {
        "value": "5.10106085",
        "script": "00140ffba4e74f0adec5337a409ab49091b7a5098d32",
        "address": "ltc1qpla6fe60pt0v2vm6gzdtfyy3k7jsnrfjdqa4v9",
        "scriptPubKey": {
          "type": "witness_v0_keyhash",
          "reqSigs": 1
        }
      },
      {
        "value": "1.1575",
        "script": "0014f4b61f763b13295b20ebc67b2892077ae5715c67",
        "address": "ltc1q7jmp7a3mzv54kg8tceaj3ys80tjhzhr828t4nu",
        "scriptPubKey": {
          "type": "witness_v0_keyhash",
          "reqSigs": 1
        }
      },
      {
        "value": "0.1242785",
        "script": "0014a2f72a0571486f6a4250b0bb0f454045b5ed567f",
        "address": "ltc1q5tmj5pt3fphk5sjskzas732qgk6764nlfp2u9c",
        "scriptPubKey": {
          "type": "witness_v0_keyhash",
          "reqSigs": 1
        }
      },
      {
        "value": "0.08545548",
        "script": "00146abe75e8bd4876352afb13078b9b237aa25a7494",
        "address": "ltc1qd2l8t69afpmr22hmzvrchxer02395ay5zychzl",
        "scriptPubKey": {
          "type": "witness_v0_keyhash",
          "reqSigs": 1
        }
      },
      {
        "value": "20.000025",
        "script": "a914e7206566a195d0e7fa005312c13ff27ecf21508d87",
        "address": "MUyF8fRePdgM6Qdrx9Bv9Q2p3jruVpYRKT",
        "scriptPubKey": {
          "type": "scripthash",
          "reqSigs": null
        }
      },
      {
        "value": "0.0147511",
        "script": "0014921f310379ea90c9dc5d593cb42554fec2faf824",
        "address": "ltc1qjg0nzqmea2gvnhzaty7tgf25lmp047pyy8g3jp",
        "scriptPubKey": {
          "type": "witness_v0_keyhash",
          "reqSigs": 1
        }
      },
      {
        "value": "0.09427107",
        "script": "00149ec2e3462ef724fe02e224affc2b810b79372fa1",
        "address": "ltc1qnmpwx33w7uj0uqhzyjhlc2uppdunwtapxywwcv",
        "scriptPubKey": {
          "type": "witness_v0_keyhash",
          "reqSigs": 1
        }
      },
      {
        "value": "0.18082441",
        "script": "001457b7a6ed726dc9c8940d9d2b7e68955fd9aee747",
        "address": "ltc1q27m6dmtjdhyu39qdn54hu6y4tlv6ae684d4fpu",
        "scriptPubKey": {
          "type": "witness_v0_keyhash",
          "reqSigs": 1
        }
      },
      {
        "value": "0.9609861",
        "script": "76a914557cdf3f7761a5af4d4e38166523f622ab4625b488ac",
        "address": "LT1yHnHVyFz51UjER8jTC5YYArLpioaxMB",
        "scriptPubKey": {
          "type": "pubkeyhash",
          "reqSigs": 1
        }
      },
      {
        "value": "0.42359304",
        "script": "0014516485ce365d8552c939353d8c3364191cf5ccd0",
        "address": "ltc1q29jgtn3ktkz49jfex57ccvmyryw0tnxsv2r4lk",
        "scriptPubKey": {
          "type": "witness_v0_keyhash",
          "reqSigs": 1
        }
      },
      {
        "value": "0.16098478",
        "script": "00141833cf8c643e458e410c9ee1af58719f5b15689e",
        "address": "ltc1qrqeulrry8ezcusgvnms67kr3nad326y7sctchj",
        "scriptPubKey": {
          "type": "witness_v0_keyhash",
          "reqSigs": 1
        }
      },
      {
        "value": "0.46075153",
        "script": "00146f8f33db59141469ce2d4d4f0132ad1ca94b1e85",
        "address": "ltc1qd78n8k6ezs2xnn3df48szv4drj55k859hgyedx",
        "scriptPubKey": {
          "type": "witness_v0_keyhash",
          "reqSigs": 1
        }
      },
      {
        "value": "0.2079",
        "script": "0014fc94515f5da80c36174a3ef9347fbae3551e5952",
        "address": "ltc1qlj29zh6a4qxrv9628mungla6ud23uk2jdz5adl",
        "scriptPubKey": {
          "type": "witness_v0_keyhash",
          "reqSigs": 1
        }
      },
      {
        "value": "0.10134305",
        "script": "76a9148449a82f9e9550aa3fd3156a5abc9bfc3760f1fb88ac",
        "address": "LXHRhJzjxsf5fuJzamXj4knhHAQykMcCHe",
        "scriptPubKey": {
          "type": "pubkeyhash",
          "reqSigs": 1
        }
      },
      {
        "value": "66.064769",
        "script": "76a914a58044c2674943d807ff1d79d69c5a24ad81d2c488ac",
        "address": "LaK3R862wAQ2g8bKDj3LGGXwbFW3PCfxc8",
        "scriptPubKey": {
          "type": "pubkeyhash",
          "reqSigs": 1
        }
      },
      {
        "value": "2.271626",
        "script": "001416754fe1d3445a935688be45db94da0df0324848",
        "address": "ltc1qze65lcwng3dfx45ghezah9x6phcryjzgplc8t3",
        "scriptPubKey": {
          "type": "witness_v0_keyhash",
          "reqSigs": 1
        }
      },
      {
        "value": "0.1712",
        "script": "a9145203af6a6a1ed9d4d95c6a8d9c6c28d1fb6b218287",
        "address": "MFNp4DM5v52EEBQweUSLKXW2m5Y3wiT7Sw",
        "scriptPubKey": {
          "type": "scripthash",
          "reqSigs": null
        }
      },
      {
        "value": "0.0579",
        "script": "00147539342e838971a4bcdbb8d9e60b08225a0c5a37",
        "address": "ltc1qw5ungt5r39c6f0xmhrv7vzcgyfdqck3hufgtqz",
        "scriptPubKey": {
          "type": "witness_v0_keyhash",
          "reqSigs": 1
        }
      },
      {
        "value": "1.98217816",
        "script": "001446fa97f33439915553beb7414e040a5994f8938a",
        "address": "ltc1qgmaf0ue58xg425a7kaq5upq2tx203yu232phx9",
        "scriptPubKey": {
          "type": "witness_v0_keyhash",
          "reqSigs": 1
        }
      },
      {
        "value": "0.2979",
        "script": "0014ae3eb68c2629c2305e32ccc066e73195ad8c04eb",
        "address": "ltc1q4cltdrpx98prqh3jenqxdee3jkkccp8tkg8adp",
        "scriptPubKey": {
          "type": "witness_v0_keyhash",
          "reqSigs": 1
        }
      },
      {
        "value": "7.99185002",
        "script": "00145364230a645170cd11d942b07e2c7edf2541e1f2",
        "address": "ltc1q2djzxzny29cv6yweg2c8utr7muj5rc0j3ymcgn",
        "scriptPubKey": {
          "type": "witness_v0_keyhash",
          "reqSigs": 1
        }
      },
      {
        "value": "2.83222055",
        "script": "0014da35f3198c39ec3938dbd3b9625a07f71e55aa35",
        "address": "ltc1qmg6lxxvv88krjwxm6wukyks87u09t234qst0ad",
        "scriptPubKey": {
          "type": "witness_v0_keyhash",
          "reqSigs": 1
        }
      },
      {
        "value": "0.82580251",
        "script": "76a9142811a69bbea3f1a6ad39e4fc9cb7fdd8bd47c4fa88ac",
        "address": "LNspSHZKLJQ9zL9hKCww11jqWbgxm5HozL",
        "scriptPubKey": {
          "type": "pubkeyhash",
          "reqSigs": 1
        }
      },
      {
        "value": "0.494405",
        "script": "0014b8ffc462a3b02728543db62545cb695abfeb7864",
        "address": "ltc1qhrlugc4rkqnjs4pakcj5tjmft2l7k7rycsmw6a",
        "scriptPubKey": {
          "type": "witness_v0_keyhash",
          "reqSigs": 1
        }
      },
      {
        "value": "410.19347282",
        "script": "76a91499b79eea83499802d0b60c4e9b7b6df9903e4ece88ac",
        "address": "LZEjckteAtWrugbsy9zU8VHEZ4iUiXo9Nm",
        "scriptPubKey": {
          "type": "pubkeyhash",
          "reqSigs": 1
        }
      }
    ],
    "size": 1047,
    "time": 1773695173,
    "version": 1,
    "vsize": 1047,
    "weight": 4188,
    "witnessHash": "48515b90702f2ef60961e6a7787ff6a8ccebb5f86a59f48ce185bd47c42f5491",
    "block": "1ca8b715b589b8b3efa973cdba247ee17e8f0e8a1c4e19e753e290a90b07cab7"
  },
  {
    "blockNumber": 3073288,
    "fee": "0.0000033",
    "hash": "146f6a9a294b6a2f9fdb094399a1abfddb72d2cd55e11dbf01aa24f2f4c4ce88",
    "hex": "010000000001013dd1f4f661bd83a8bd8082fb30d0f61f7d6dfba35c7e14280eddf40ada51ba9d0700000000ffffffff08c8d72d1c000000001976a9147107aa359e8ad1c13e2b39761c340a3cad5acc4388ac36277a4d00000000160014e7cd7f0bf7306525e3d1ad72f071651f941a84c8889bd200000000001600146800677d9b6e6b61a9da1d7041ae75067eaaac1108ea020700000000160014f4b61f763b13295b20ebc67b2892077ae5715c670f658f0000000000160014940b6e9f146bf4d16eb9f57eb0431f5594843d1a053de70a00000000160014f354c164addc90024c511a7de80f4c9dd7b6bdd967bcdf0700000000160014e43f52e0475c8350412f5c71a8b53c291f46868ccb16e9cfa0010000160014f300c95dfff4de6dce451e40a331d602bce64dbe0247304402200791224bd917e42d632c4ef64f48ce41cf0a06beb8f875c800a3cb0af0ed159102202fa196c2adea142e6e02062d65fd9b2efa10c898babb1c004e2dd4289cf10de2012102b911abea87b0283ebbc8393aa7cd98452f37802f28e5f8f7955808c4ee084bc800000000",
    "index": 114,
    "inputs": [
      {
        "prevout": {
          "hash": "9dba51da0af4dd0e28147e5ca3fb6d7d1ff6d030fb8280bda883bd61f6f4d13d",
          "index": 7
        },
        "sequence": 4294967295,
        "script": "",
        "coin": {
          "version": 1,
          "height": 3073284,
          "value": "17924.2303363",
          "script": "0014f300c95dfff4de6dce451e40a331d602bce64dbe",
          "address": "ltc1q7vqvjh0l7n0xmnj9req2xvwkq27wvnd7nj7njh",
          "type": "witness_v0_keyhash",
          "reqSigs": 1,
          "coinbase": false
        }
      }
    ],
    "locktime": 0,
    "outputs": [
      {
        "value": "4.72766408",
        "script": "76a9147107aa359e8ad1c13e2b39761c340a3cad5acc4388ac",
        "address": "LVXboTMCJ3nFyrKVkUMisFNB72XsohHHdi",
        "scriptPubKey": {
          "type": "pubkeyhash",
          "reqSigs": 1
        }
      },
      {
        "value": "12.99851062",
        "script": "0014e7cd7f0bf7306525e3d1ad72f071651f941a84c8",
        "address": "ltc1qulxh7zlhxpjjtc7344e0qut9r72p4pxgxveezv",
        "scriptPubKey": {
          "type": "witness_v0_keyhash",
          "reqSigs": 1
        }
      },
      {
        "value": "0.13802376",
        "script": "00146800677d9b6e6b61a9da1d7041ae75067eaaac11",
        "address": "ltc1qdqqxwlvmde4kr2w6r4cyrtn4qel24tq36xvr9q",
        "scriptPubKey": {
          "type": "witness_v0_keyhash",
          "reqSigs": 1
        }
      },
      {
        "value": "1.17631496",
        "script": "0014f4b61f763b13295b20ebc67b2892077ae5715c67",
        "address": "ltc1q7jmp7a3mzv54kg8tceaj3ys80tjhzhr828t4nu",
        "scriptPubKey": {
          "type": "witness_v0_keyhash",
          "reqSigs": 1
        }
      },
      {
        "value": "0.09397519",
        "script": "0014940b6e9f146bf4d16eb9f57eb0431f5594843d1a",
        "address": "ltc1qjs9ka8c5d06dzm4e74ltqscl2k2gg0g6reql2n",
        "scriptPubKey": {
          "type": "witness_v0_keyhash",
          "reqSigs": 1
        }
      },
      {
        "value": "1.82926597",
        "script": "0014f354c164addc90024c511a7de80f4c9dd7b6bdd9",
        "address": "ltc1q7d2vze9dmjgqynz3rf77sr6vnhtmd0wews3jee",
        "scriptPubKey": {
          "type": "witness_v0_keyhash",
          "reqSigs": 1
        }
      },
      {
        "value": "1.32103271",
        "script": "0014e43f52e0475c8350412f5c71a8b53c291f46868c",
        "address": "ltc1qusl49cz8tjp4qsf0t3c63dfu9y05dp5vhfq444",
        "scriptPubKey": {
          "type": "witness_v0_keyhash",
          "reqSigs": 1
        }
      },
      {
        "value": "17901.94554571",
        "script": "0014f300c95dfff4de6dce451e40a331d602bce64dbe",
        "address": "ltc1q7vqvjh0l7n0xmnj9req2xvwkq27wvnd7nj7njh",
        "scriptPubKey": {
          "type": "witness_v0_keyhash",
          "reqSigs": 1
        }
      }
    ],
    "size": 411,
    "time": 1773677601,
    "version": 1,
    "vsize": 330,
    "weight": 1317,
    "witnessHash": "111b35580c3f7e1a5dfeadede4184735ec09c8febbe373f26e246c6ab30b2acd",
    "block": "013c17aeaa7208b6e042d3b91c8b974c9ea6f8b5aa9792cb7c853b491599ea16"
  }
]
